{
  "contractName": "Producer",
  "abi": [
    {
      "constant": false,
      "inputs": [
        {
          "internalType": "address",
          "name": "newProducer",
          "type": "address"
        }
      ],
      "name": "addProducer",
      "outputs": [],
      "payable": false,
      "stateMutability": "nonpayable",
      "type": "function"
    },
    {
      "constant": true,
      "inputs": [],
      "name": "isProducer",
      "outputs": [
        {
          "internalType": "bool",
          "name": "",
          "type": "bool"
        }
      ],
      "payable": false,
      "stateMutability": "view",
      "type": "function"
    }
  ],
  "bytecode": "0x608060405234801561001057600080fd5b50610253806100206000396000f3fe608060405234801561001057600080fd5b50600436106100365760003560e01c80635f515a3a1461003b578063ddf801661461005d575b600080fd5b6100436100a1565b604051808215151515815260200191505060405180910390f35b61009f6004803603602081101561007357600080fd5b81019080803573ffffffffffffffffffffffffffffffffffffffff1690602001909291905050506100bc565b005b60006100b733600061013d90919063ffffffff16565b905090565b6100d081600061013d90919063ffffffff16565b15610126576040517f08c379a000000000000000000000000000000000000000000000000000000000815260040180806020018281038252602a8152602001806101f5602a913960400191505060405180910390fd5b61013a81600061019690919063ffffffff16565b50565b60008260000160008373ffffffffffffffffffffffffffffffffffffffff1673ffffffffffffffffffffffffffffffffffffffff16815260200190815260200160002060009054906101000a900460ff16905092915050565b60018260000160008373ffffffffffffffffffffffffffffffffffffffff1673ffffffffffffffffffffffffffffffffffffffff16815260200190815260200160002060006101000a81548160ff021916908315150217905550505056fe50726f647563657220776974682074686973206164647265737320616c72656164792065786973747321a265627a7a723158200592d7c7b074baa33f3c0a9684c85fcb28547f567e6836c1da5bd3b4b162e82c64736f6c63430005100032",
  "source": "// SPDX-License-Identifier: MIT\r\n// The above line specifies the license for this contract.\r\n\r\n// This pragma statement defines the version of Solidity that the contract is compatible with.\r\n// It allows versions greater than or equal to 0.4.21 and less than 0.9.0.\r\npragma solidity >=0.4.21 <0.9.0;\r\n\r\n// Import the \"Users.sol\" contract to access its functions and data structures.\r\nimport \"./Users.sol\";\r\n\r\n/**\r\n * @title Producer\r\n * @dev Handles producer functions.\r\n */\r\n// This is the main contract named \"Producer,\" which handles producer-related functions.\r\ncontract Producer {\r\n   \r\n    // Use the \"Users\" library for the \"User\" struct and its functions.\r\n    using Users for Users.User;\r\n\r\n    // Create a private instance of the \"Users.User\" struct to manage producers.\r\n    Users.User private producers;\r\n\r\n    // Function to add a new producer.\r\n    function addProducer(address newProducer) public {\r\n        // Check if the producer with the provided address already exists.\r\n        require(!producers.isExistingUser(newProducer), \"Producer with this address already exists!\");\r\n        \r\n        // If the producer does not exist, add them to the list of producers.\r\n        producers.addUser(newProducer);\r\n    }\r\n\r\n    /*\r\n    * Function to check if the caller is a producer.\r\n    */\r\n    function isProducer() public view returns (bool) {\r\n        // Check if the caller's address exists in the list of producers.\r\n        return producers.isExistingUser(msg.sender);\r\n    }\r\n}\r\n",
  "sourcePath": "D:\\web_development\\supply_chain_management_major\\contracts\\Producer.sol",
  "compiler": {
    "name": "solc",
    "version": "0.5.16+commit.9c3226ce.Emscripten.clang"
  },
  "schemaVersion": "3.4.3",
  "updatedAt": "2024-04-08T09:25:39.349Z",
  "devdoc": {
    "details": "Handles producer functions.",
    "methods": {},
    "title": "Producer"
  },
  "userdoc": {
    "methods": {}
  }
}