{
  "contractName": "Retailer",
  "abi": [
    {
      "constant": false,
      "inputs": [
        {
          "internalType": "address",
          "name": "newRetailer",
          "type": "address"
        }
      ],
      "name": "addRetailer",
      "outputs": [],
      "payable": false,
      "stateMutability": "nonpayable",
      "type": "function"
    },
    {
      "constant": true,
      "inputs": [],
      "name": "isRetailer",
      "outputs": [
        {
          "internalType": "bool",
          "name": "",
          "type": "bool"
        }
      ],
      "payable": false,
      "stateMutability": "view",
      "type": "function"
    }
  ],
  "bytecode": "0x608060405234801561001057600080fd5b50610253806100206000396000f3fe608060405234801561001057600080fd5b50600436106100365760003560e01c8063477ba6451461003b5780638ec4f5051461005d575b600080fd5b6100436100a1565b604051808215151515815260200191505060405180910390f35b61009f6004803603602081101561007357600080fd5b81019080803573ffffffffffffffffffffffffffffffffffffffff1690602001909291905050506100bc565b005b60006100b733600061013d90919063ffffffff16565b905090565b6100d081600061013d90919063ffffffff16565b15610126576040517f08c379a000000000000000000000000000000000000000000000000000000000815260040180806020018281038252602a8152602001806101f5602a913960400191505060405180910390fd5b61013a81600061019690919063ffffffff16565b50565b60008260000160008373ffffffffffffffffffffffffffffffffffffffff1673ffffffffffffffffffffffffffffffffffffffff16815260200190815260200160002060009054906101000a900460ff16905092915050565b60018260000160008373ffffffffffffffffffffffffffffffffffffffff1673ffffffffffffffffffffffffffffffffffffffff16815260200190815260200160002060006101000a81548160ff021916908315150217905550505056fe52657461696c657220776974682074686973206164647265737320616c72656164792065786973747321a265627a7a72315820083ed4d2738626a515dd585ace17fd028059f1d845fe1e94c83e8eb1b4840d7864736f6c63430005100032",
  "source": "// SPDX-License-Identifier: MIT\r\npragma solidity >=0.4.21 <0.9.0;\r\n\r\nimport \"./Users.sol\";\r\n\r\n/**\r\n * @title Retailer\r\n * @dev Handles retailer functions.\r\n */\r\ncontract Retailer {\r\n   \r\n   using Users for Users.User;\r\n\r\n   Users.User private retailers;\r\n\r\n  function addRetailer(address newRetailer) public {\r\n    require(!retailers.isExistingUser(newRetailer), \"Retailer with this address already exists!\");\r\n    retailers.addUser(newRetailer);\r\n  }\r\n\r\n  function isRetailer() public view returns (bool) {\r\n    return retailers.isExistingUser(msg.sender);\r\n  }\r\n}",
  "sourcePath": "C:\\Users\\sudeep\\Desktop\\supply_chain_management_major\\contracts\\retailer.sol",
  "compiler": {
    "name": "solc",
    "version": "0.5.16+commit.9c3226ce.Emscripten.clang"
  },
  "schemaVersion": "3.4.3",
  "updatedAt": "2023-10-30T08:00:03.630Z",
  "networkType": "ethereum",
  "devdoc": {
    "details": "Handles retailer functions.",
    "methods": {},
    "title": "Retailer"
  },
  "userdoc": {
    "methods": {}
  }
}